{
  "_format": "hh-sol-artifact-1",
  "contractName": "LunarNFT",
  "sourceName": "contracts/LunarNFT.sol",
  "abi": [
    {
      "inputs": [
        {
          "internalType": "bytes32",
          "name": "presaleRoot",
          "type": "bytes32"
        }
      ],
      "stateMutability": "nonpayable",
      "type": "constructor"
    },
    {
      "inputs": [],
      "name": "ApprovalCallerNotOwnerNorApproved",
      "type": "error"
    },
    {
      "inputs": [],
      "name": "ApprovalQueryForNonexistentToken",
      "type": "error"
    },
    {
      "inputs": [],
      "name": "ApprovalToCurrentOwner",
      "type": "error"
    },
    {
      "inputs": [],
      "name": "ApproveToCaller",
      "type": "error"
    },
    {
      "inputs": [],
      "name": "BalanceQueryForZeroAddress",
      "type": "error"
    },
    {
      "inputs": [],
      "name": "MintToZeroAddress",
      "type": "error"
    },
    {
      "inputs": [],
      "name": "MintZeroQuantity",
      "type": "error"
    },
    {
      "inputs": [],
      "name": "OwnerIndexOutOfBounds",
      "type": "error"
    },
    {
      "inputs": [],
      "name": "OwnerQueryForNonexistentToken",
      "type": "error"
    },
    {
      "inputs": [],
      "name": "TokenIndexOutOfBounds",
      "type": "error"
    },
    {
      "inputs": [],
      "name": "TransferCallerNotOwnerNorApproved",
      "type": "error"
    },
    {
      "inputs": [],
      "name": "TransferFromIncorrectOwner",
      "type": "error"
    },
    {
      "inputs": [],
      "name": "TransferToNonERC721ReceiverImplementer",
      "type": "error"
    },
    {
      "inputs": [],
      "name": "TransferToZeroAddress",
      "type": "error"
    },
    {
      "anonymous": false,
      "inputs": [
        {
          "indexed": true,
          "internalType": "address",
          "name": "owner",
          "type": "address"
        },
        {
          "indexed": true,
          "internalType": "address",
          "name": "approved",
          "type": "address"
        },
        {
          "indexed": true,
          "internalType": "uint256",
          "name": "tokenId",
          "type": "uint256"
        }
      ],
      "name": "Approval",
      "type": "event"
    },
    {
      "anonymous": false,
      "inputs": [
        {
          "indexed": true,
          "internalType": "address",
          "name": "owner",
          "type": "address"
        },
        {
          "indexed": true,
          "internalType": "address",
          "name": "operator",
          "type": "address"
        },
        {
          "indexed": false,
          "internalType": "bool",
          "name": "approved",
          "type": "bool"
        }
      ],
      "name": "ApprovalForAll",
      "type": "event"
    },
    {
      "anonymous": false,
      "inputs": [
        {
          "indexed": true,
          "internalType": "address",
          "name": "previousOwner",
          "type": "address"
        },
        {
          "indexed": true,
          "internalType": "address",
          "name": "newOwner",
          "type": "address"
        }
      ],
      "name": "OwnershipTransferred",
      "type": "event"
    },
    {
      "anonymous": false,
      "inputs": [
        {
          "indexed": true,
          "internalType": "address",
          "name": "from",
          "type": "address"
        },
        {
          "indexed": true,
          "internalType": "address",
          "name": "to",
          "type": "address"
        },
        {
          "indexed": true,
          "internalType": "uint256",
          "name": "tokenId",
          "type": "uint256"
        }
      ],
      "name": "Transfer",
      "type": "event"
    },
    {
      "inputs": [
        {
          "internalType": "address",
          "name": "to",
          "type": "address"
        },
        {
          "internalType": "uint256",
          "name": "tokenId",
          "type": "uint256"
        }
      ],
      "name": "approve",
      "outputs": [],
      "stateMutability": "nonpayable",
      "type": "function"
    },
    {
      "inputs": [
        {
          "internalType": "address",
          "name": "owner",
          "type": "address"
        }
      ],
      "name": "balanceOf",
      "outputs": [
        {
          "internalType": "uint256",
          "name": "",
          "type": "uint256"
        }
      ],
      "stateMutability": "view",
      "type": "function"
    },
    {
      "inputs": [],
      "name": "baseURI",
      "outputs": [
        {
          "internalType": "string",
          "name": "",
          "type": "string"
        }
      ],
      "stateMutability": "view",
      "type": "function"
    },
    {
      "inputs": [],
      "name": "blindURL",
      "outputs": [
        {
          "internalType": "string",
          "name": "",
          "type": "string"
        }
      ],
      "stateMutability": "view",
      "type": "function"
    },
    {
      "inputs": [
        {
          "internalType": "uint256",
          "name": "tokenId",
          "type": "uint256"
        }
      ],
      "name": "getApproved",
      "outputs": [
        {
          "internalType": "address",
          "name": "",
          "type": "address"
        }
      ],
      "stateMutability": "view",
      "type": "function"
    },
    {
      "inputs": [
        {
          "internalType": "address",
          "name": "owner",
          "type": "address"
        },
        {
          "internalType": "address",
          "name": "operator",
          "type": "address"
        }
      ],
      "name": "isApprovedForAll",
      "outputs": [
        {
          "internalType": "bool",
          "name": "",
          "type": "bool"
        }
      ],
      "stateMutability": "view",
      "type": "function"
    },
    {
      "inputs": [],
      "name": "isFreeMintActive",
      "outputs": [
        {
          "internalType": "bool",
          "name": "",
          "type": "bool"
        }
      ],
      "stateMutability": "view",
      "type": "function"
    },
    {
      "inputs": [],
      "name": "isPresaleActive",
      "outputs": [
        {
          "internalType": "bool",
          "name": "",
          "type": "bool"
        }
      ],
      "stateMutability": "view",
      "type": "function"
    },
    {
      "inputs": [],
      "name": "isPublicActive",
      "outputs": [
        {
          "internalType": "bool",
          "name": "",
          "type": "bool"
        }
      ],
      "stateMutability": "view",
      "type": "function"
    },
    {
      "inputs": [],
      "name": "isRevealActive",
      "outputs": [
        {
          "internalType": "bool",
          "name": "",
          "type": "bool"
        }
      ],
      "stateMutability": "view",
      "type": "function"
    },
    {
      "inputs": [],
      "name": "maxOGTMint",
      "outputs": [
        {
          "internalType": "uint8",
          "name": "",
          "type": "uint8"
        }
      ],
      "stateMutability": "view",
      "type": "function"
    },
    {
      "inputs": [],
      "name": "maxPresaleMint",
      "outputs": [
        {
          "internalType": "uint8",
          "name": "",
          "type": "uint8"
        }
      ],
      "stateMutability": "view",
      "type": "function"
    },
    {
      "inputs": [],
      "name": "maxPresaleSupply",
      "outputs": [
        {
          "internalType": "uint256",
          "name": "",
          "type": "uint256"
        }
      ],
      "stateMutability": "view",
      "type": "function"
    },
    {
      "inputs": [],
      "name": "maxPublicMint",
      "outputs": [
        {
          "internalType": "uint8",
          "name": "",
          "type": "uint8"
        }
      ],
      "stateMutability": "view",
      "type": "function"
    },
    {
      "inputs": [],
      "name": "maxTokens",
      "outputs": [
        {
          "internalType": "uint256",
          "name": "",
          "type": "uint256"
        }
      ],
      "stateMutability": "view",
      "type": "function"
    },
    {
      "inputs": [
        {
          "internalType": "uint256",
          "name": "numberOfTokens",
          "type": "uint256"
        }
      ],
      "name": "mintFreeSale",
      "outputs": [],
      "stateMutability": "payable",
      "type": "function"
    },
    {
      "inputs": [
        {
          "internalType": "uint256",
          "name": "numberOfTokens",
          "type": "uint256"
        },
        {
          "internalType": "uint8",
          "name": "tier",
          "type": "uint8"
        },
        {
          "internalType": "bytes32[]",
          "name": "proof",
          "type": "bytes32[]"
        }
      ],
      "name": "mintPresale",
      "outputs": [],
      "stateMutability": "payable",
      "type": "function"
    },
    {
      "inputs": [
        {
          "internalType": "uint256",
          "name": "numberOfTokens",
          "type": "uint256"
        }
      ],
      "name": "mintPublicSale",
      "outputs": [],
      "stateMutability": "payable",
      "type": "function"
    },
    {
      "inputs": [
        {
          "internalType": "address",
          "name": "",
          "type": "address"
        }
      ],
      "name": "mintedForPresale",
      "outputs": [
        {
          "internalType": "uint256",
          "name": "",
          "type": "uint256"
        }
      ],
      "stateMutability": "view",
      "type": "function"
    },
    {
      "inputs": [
        {
          "internalType": "address",
          "name": "",
          "type": "address"
        }
      ],
      "name": "mintedForPublic",
      "outputs": [
        {
          "internalType": "uint256",
          "name": "",
          "type": "uint256"
        }
      ],
      "stateMutability": "view",
      "type": "function"
    },
    {
      "inputs": [],
      "name": "name",
      "outputs": [
        {
          "internalType": "string",
          "name": "",
          "type": "string"
        }
      ],
      "stateMutability": "view",
      "type": "function"
    },
    {
      "inputs": [],
      "name": "owner",
      "outputs": [
        {
          "internalType": "address",
          "name": "",
          "type": "address"
        }
      ],
      "stateMutability": "view",
      "type": "function"
    },
    {
      "inputs": [
        {
          "internalType": "uint256",
          "name": "tokenId",
          "type": "uint256"
        }
      ],
      "name": "ownerOf",
      "outputs": [
        {
          "internalType": "address",
          "name": "",
          "type": "address"
        }
      ],
      "stateMutability": "view",
      "type": "function"
    },
    {
      "inputs": [],
      "name": "presaleMerkleRoot",
      "outputs": [
        {
          "internalType": "bytes32",
          "name": "",
          "type": "bytes32"
        }
      ],
      "stateMutability": "view",
      "type": "function"
    },
    {
      "inputs": [],
      "name": "price",
      "outputs": [
        {
          "internalType": "uint256",
          "name": "",
          "type": "uint256"
        }
      ],
      "stateMutability": "view",
      "type": "function"
    },
    {
      "inputs": [],
      "name": "priceOG",
      "outputs": [
        {
          "internalType": "uint256",
          "name": "",
          "type": "uint256"
        }
      ],
      "stateMutability": "view",
      "type": "function"
    },
    {
      "inputs": [],
      "name": "priceWL",
      "outputs": [
        {
          "internalType": "uint256",
          "name": "",
          "type": "uint256"
        }
      ],
      "stateMutability": "view",
      "type": "function"
    },
    {
      "inputs": [],
      "name": "renounceOwnership",
      "outputs": [],
      "stateMutability": "nonpayable",
      "type": "function"
    },
    {
      "inputs": [
        {
          "internalType": "address",
          "name": "from",
          "type": "address"
        },
        {
          "internalType": "address",
          "name": "to",
          "type": "address"
        },
        {
          "internalType": "uint256",
          "name": "tokenId",
          "type": "uint256"
        }
      ],
      "name": "safeTransferFrom",
      "outputs": [],
      "stateMutability": "nonpayable",
      "type": "function"
    },
    {
      "inputs": [
        {
          "internalType": "address",
          "name": "from",
          "type": "address"
        },
        {
          "internalType": "address",
          "name": "to",
          "type": "address"
        },
        {
          "internalType": "uint256",
          "name": "tokenId",
          "type": "uint256"
        },
        {
          "internalType": "bytes",
          "name": "_data",
          "type": "bytes"
        }
      ],
      "name": "safeTransferFrom",
      "outputs": [],
      "stateMutability": "nonpayable",
      "type": "function"
    },
    {
      "inputs": [
        {
          "internalType": "address",
          "name": "operator",
          "type": "address"
        },
        {
          "internalType": "bool",
          "name": "approved",
          "type": "bool"
        }
      ],
      "name": "setApprovalForAll",
      "outputs": [],
      "stateMutability": "nonpayable",
      "type": "function"
    },
    {
      "inputs": [
        {
          "internalType": "string",
          "name": "newBaseURI",
          "type": "string"
        }
      ],
      "name": "setBaseURI",
      "outputs": [],
      "stateMutability": "nonpayable",
      "type": "function"
    },
    {
      "inputs": [
        {
          "internalType": "uint8",
          "name": "_maxPresaleMint",
          "type": "uint8"
        }
      ],
      "name": "setMaxPresaleMint",
      "outputs": [],
      "stateMutability": "nonpayable",
      "type": "function"
    },
    {
      "inputs": [
        {
          "internalType": "uint256",
          "name": "_maxPresaleMintSupply",
          "type": "uint256"
        }
      ],
      "name": "setMaxPresaleMintSupply",
      "outputs": [],
      "stateMutability": "nonpayable",
      "type": "function"
    },
    {
      "inputs": [
        {
          "internalType": "bytes32",
          "name": "presaleRoot",
          "type": "bytes32"
        }
      ],
      "name": "setPresaleMerkleRoot",
      "outputs": [],
      "stateMutability": "nonpayable",
      "type": "function"
    },
    {
      "inputs": [
        {
          "internalType": "bytes4",
          "name": "interfaceId",
          "type": "bytes4"
        }
      ],
      "name": "supportsInterface",
      "outputs": [
        {
          "internalType": "bool",
          "name": "",
          "type": "bool"
        }
      ],
      "stateMutability": "view",
      "type": "function"
    },
    {
      "inputs": [],
      "name": "symbol",
      "outputs": [
        {
          "internalType": "string",
          "name": "",
          "type": "string"
        }
      ],
      "stateMutability": "view",
      "type": "function"
    },
    {
      "inputs": [],
      "name": "toggleFreeMintActive",
      "outputs": [],
      "stateMutability": "nonpayable",
      "type": "function"
    },
    {
      "inputs": [],
      "name": "togglePresaleActive",
      "outputs": [],
      "stateMutability": "nonpayable",
      "type": "function"
    },
    {
      "inputs": [],
      "name": "togglePublicSaleActive",
      "outputs": [],
      "stateMutability": "nonpayable",
      "type": "function"
    },
    {
      "inputs": [],
      "name": "toggleRevealActive",
      "outputs": [],
      "stateMutability": "nonpayable",
      "type": "function"
    },
    {
      "inputs": [
        {
          "internalType": "uint256",
          "name": "index",
          "type": "uint256"
        }
      ],
      "name": "tokenByIndex",
      "outputs": [
        {
          "internalType": "uint256",
          "name": "",
          "type": "uint256"
        }
      ],
      "stateMutability": "view",
      "type": "function"
    },
    {
      "inputs": [
        {
          "internalType": "address",
          "name": "owner",
          "type": "address"
        },
        {
          "internalType": "uint256",
          "name": "index",
          "type": "uint256"
        }
      ],
      "name": "tokenOfOwnerByIndex",
      "outputs": [
        {
          "internalType": "uint256",
          "name": "",
          "type": "uint256"
        }
      ],
      "stateMutability": "view",
      "type": "function"
    },
    {
      "inputs": [
        {
          "internalType": "uint256",
          "name": "tokenId",
          "type": "uint256"
        }
      ],
      "name": "tokenURI",
      "outputs": [
        {
          "internalType": "string",
          "name": "",
          "type": "string"
        }
      ],
      "stateMutability": "view",
      "type": "function"
    },
    {
      "inputs": [],
      "name": "totalSupply",
      "outputs": [
        {
          "internalType": "uint256",
          "name": "",
          "type": "uint256"
        }
      ],
      "stateMutability": "view",
      "type": "function"
    },
    {
      "inputs": [
        {
          "internalType": "address",
          "name": "from",
          "type": "address"
        },
        {
          "internalType": "address",
          "name": "to",
          "type": "address"
        },
        {
          "internalType": "uint256",
          "name": "tokenId",
          "type": "uint256"
        }
      ],
      "name": "transferFrom",
      "outputs": [],
      "stateMutability": "nonpayable",
      "type": "function"
    },
    {
      "inputs": [
        {
          "internalType": "address",
          "name": "newOwner",
          "type": "address"
        }
      ],
      "name": "transferOwnership",
      "outputs": [],
      "stateMutability": "nonpayable",
      "type": "function"
    },
    {
      "inputs": [],
      "name": "withdraw",
      "outputs": [],
      "stateMutability": "nonpayable",
      "type": "function"
    }
  ],
  "bytecode": "0x610100604052605160808181529062002e0860a03980516200002a91600991602090910190620001a2565b506040518060800160405280605f815260200162002da9605f913980516200005b91600a91602090910190620001a2565b50600b805462ffffff1916620a0101179055610d05600c55614e20600d55600e805463ffffffff191690553480156200009357600080fd5b5060405162002e5938038062002e59833981016040819052620000b69162000248565b60405180604001604052806008815260200167131d5b985c93919560c21b81525060405180604001604052806008815260200167131d5b985c93919560c21b815250620001126200010c6200014e60201b60201c565b62000152565b815162000127906002906020850190620001a2565b5080516200013d906003906020840190620001a2565b5050600160085550600f556200029f565b3390565b600080546001600160a01b038381166001600160a01b0319831681178455604051919092169283917f8be0079c531659141344cd1fd0a4f28419497f9722a3daafe3b4186f6b6457e09190a35050565b828054620001b09062000262565b90600052602060002090601f016020900481019282620001d457600085556200021f565b82601f10620001ef57805160ff19168380011785556200021f565b828001600101855582156200021f579182015b828111156200021f57825182559160200191906001019062000202565b506200022d92915062000231565b5090565b5b808211156200022d576000815560010162000232565b6000602082840312156200025b57600080fd5b5051919050565b600181811c908216806200027757607f821691505b602082108114156200029957634e487b7160e01b600052602260045260246000fd5b50919050565b612afa80620002af6000396000f3fe6080604052600436106103135760003560e01c806367ad64581161019a578063a3330d25116100e1578063d174622e1161008a578063e831574211610064578063e831574214610879578063e985e9c51461088f578063f2fde38b146108d857600080fd5b8063d174622e14610823578063dfc5f9301461083d578063e357a51f1461085957600080fd5b8063c87b56dd116100bb578063c87b56dd146107ce578063cabadaa0146107ee578063cc71bc931461080e57600080fd5b8063a3330d251461075e578063b45762781461077d578063b88d4fde146107ae57600080fd5b806389b0649b11610143578063982a77561161011d578063982a77561461070f578063a035b1fe14610722578063a22cb4651461073e57600080fd5b806389b0649b146106c75780638da5cb5b146106dc57806395d89b41146106fa57600080fd5b8063715018a611610174578063715018a614610672578063716e83ca146106875780637a5b85c1146106a757600080fd5b806367ad64581461062a5780636c0360eb1461063d57806370a082311461065257600080fd5b8063299de4721161025e5780635533b18d116102075780635a5e5d58116101e15780635a5e5d58146105dd57806360d938dc146105f05780636352211e1461060a57600080fd5b80635533b18d1461059357806355f804b3146105a8578063560d43e5146105c857600080fd5b80633ccfd60b116102385780633ccfd60b1461053e57806342842e0e146105535780634f6ccce71461057357600080fd5b8063299de472146104d55780632f745c59146104f157806336088c101461051157600080fd5b80630c894cfe116102c057806322212e2b1161029a57806322212e2b1461047f57806323b872dd1461049557806328d7b276146104b557600080fd5b80630c894cfe1461042557806318160ddd1461043a57806321bdb26e1461046957600080fd5b8063081812fc116102f1578063081812fc14610390578063095ea7b3146103c85780630b218479146103ea57600080fd5b806301ffc9a714610318578063034554931461034d57806306fdde031461036e575b600080fd5b34801561032457600080fd5b5061033861033336600461255a565b6108f8565b60405190151581526020015b60405180910390f35b34801561035957600080fd5b50600e54610338906301000000900460ff1681565b34801561037a57600080fd5b50610383610965565b60405161034491906125cf565b34801561039c57600080fd5b506103b06103ab3660046125e2565b6109f7565b6040516001600160a01b039091168152602001610344565b3480156103d457600080fd5b506103e86103e3366004612617565b610a3b565b005b3480156103f657600080fd5b50610417610405366004612641565b60106020526000908152604090205481565b604051908152602001610344565b34801561043157600080fd5b506103e8610ac9565b34801561044657600080fd5b506104176001546001600160801b03600160801b82048116918116919091031690565b34801561047557600080fd5b50610417600c5481565b34801561048b57600080fd5b50610417600f5481565b3480156104a157600080fd5b506103e86104b036600461265c565b610b33565b3480156104c157600080fd5b506103e86104d03660046125e2565b610b3e565b3480156104e157600080fd5b5061041767016345785d8a000081565b3480156104fd57600080fd5b5061041761050c366004612617565b610b8b565b34801561051d57600080fd5b5061041761052c366004612641565b60116020526000908152604090205481565b34801561054a57600080fd5b506103e8610c88565b34801561055f57600080fd5b506103e861056e36600461265c565b610dba565b34801561057f57600080fd5b5061041761058e3660046125e2565b610dd5565b34801561059f57600080fd5b506103e8610e82565b3480156105b457600080fd5b506103e86105c3366004612724565b610ee9565b3480156105d457600080fd5b50610383610f44565b6103e86105eb3660046125e2565b610fd2565b3480156105fc57600080fd5b50600e546103389060ff1681565b34801561061657600080fd5b506103b06106253660046125e2565b6111bb565b6103e861063836600461277e565b6111cd565b34801561064957600080fd5b50610383611574565b34801561065e57600080fd5b5061041761066d366004612641565b611581565b34801561067e57600080fd5b506103e86115d0565b34801561069357600080fd5b506103e86106a2366004612808565b611624565b3480156106b357600080fd5b50600e546103389062010000900460ff1681565b3480156106d357600080fd5b506103e8611688565b3480156106e857600080fd5b506000546001600160a01b03166103b0565b34801561070657600080fd5b506103836116e4565b6103e861071d3660046125e2565b6116f3565b34801561072e57600080fd5b50610417670429d069189e000081565b34801561074a57600080fd5b506103e8610759366004612823565b611821565b34801561076a57600080fd5b50600e5461033890610100900460ff1681565b34801561078957600080fd5b50600b5461079c90610100900460ff1681565b60405160ff9091168152602001610344565b3480156107ba57600080fd5b506103e86107c936600461285f565b6118b7565b3480156107da57600080fd5b506103836107e93660046125e2565b6118eb565b3480156107fa57600080fd5b50600b5461079c9062010000900460ff1681565b34801561081a57600080fd5b506103e8611a67565b34801561082f57600080fd5b50600b5461079c9060ff1681565b34801561084957600080fd5b50610417670138a388a43c000081565b34801561086557600080fd5b506103e86108743660046125e2565b611ad0565b34801561088557600080fd5b50610417600d5481565b34801561089b57600080fd5b506103386108aa3660046128db565b6001600160a01b03918216600090815260076020908152604080832093909416825291909152205460ff1690565b3480156108e457600080fd5b506103e86108f3366004612641565b611b1d565b60006001600160e01b031982166380ac58cd60e01b148061092957506001600160e01b03198216635b5e139f60e01b145b8061094457506001600160e01b0319821663780e9d6360e01b145b8061095f57506301ffc9a760e01b6001600160e01b03198316145b92915050565b6060600280546109749061290e565b80601f01602080910402602001604051908101604052809291908181526020018280546109a09061290e565b80156109ed5780601f106109c2576101008083540402835291602001916109ed565b820191906000526020600020905b8154815290600101906020018083116109d057829003601f168201915b5050505050905090565b6000610a0282611bea565b610a1f576040516333d1c03960e21b815260040160405180910390fd5b506000908152600660205260409020546001600160a01b031690565b6000610a46826111bb565b9050806001600160a01b0316836001600160a01b03161415610a7b5760405163250fdee360e21b815260040160405180910390fd5b336001600160a01b03821614801590610a9b5750610a9981336108aa565b155b15610ab9576040516367d9dca160e11b815260040160405180910390fd5b610ac4838383611c20565b505050565b6000546001600160a01b03163314610b165760405162461bcd60e51b81526020600482018190526024820152600080516020612aa583398151915260448201526064015b60405180910390fd5b600e805461ff001981166101009182900460ff1615909102179055565b610ac4838383611c89565b6000546001600160a01b03163314610b865760405162461bcd60e51b81526020600482018190526024820152600080516020612aa58339815191526044820152606401610b0d565b600f55565b6000610b9683611581565b8210610bb5576040516306ed618760e11b815260040160405180910390fd5b6001546001600160801b0316600080805b83811015610c8257600081815260046020908152604091829020825160608101845290546001600160a01b0381168252600160a01b810467ffffffffffffffff1692820192909252600160e01b90910460ff161580159282019290925290610c2e5750610c7a565b80516001600160a01b031615610c4357805192505b876001600160a01b0316836001600160a01b03161415610c785786841415610c715750935061095f92505050565b6001909301925b505b600101610bc6565b50600080fd5b6000546001600160a01b03163314610cd05760405162461bcd60e51b81526020600482018190526024820152600080516020612aa58339815191526044820152606401610b0d565b4780610d1e5760405162461bcd60e51b815260206004820152601660248201527f4e6f2062616c616e636520746f207769746864726177000000000000000000006044820152606401610b0d565b604051600090339083908381818185875af1925050503d8060008114610d60576040519150601f19603f3d011682016040523d82523d6000602084013e610d65565b606091505b5050905080610db65760405162461bcd60e51b815260206004820152601a60248201527f4661696c656420746f207769746864726177207061796d656e740000000000006044820152606401610b0d565b5050565b610ac4838383604051806020016040528060008152506118b7565b6001546000906001600160801b031681805b82811015610e6857600081815260046020908152604091829020825160608101845290546001600160a01b0381168252600160a01b810467ffffffffffffffff1692820192909252600160e01b90910460ff16151591810182905290610e5f5785831415610e585750949350505050565b6001909201915b50600101610de7565b506040516329c8c00760e21b815260040160405180910390fd5b6000546001600160a01b03163314610eca5760405162461bcd60e51b81526020600482018190526024820152600080516020612aa58339815191526044820152606401610b0d565b600e805462ff0000198116620100009182900460ff1615909102179055565b6000546001600160a01b03163314610f315760405162461bcd60e51b81526020600482018190526024820152600080516020612aa58339815191526044820152606401610b0d565b8051610db69060099060208401906124ab565b600a8054610f519061290e565b80601f0160208091040260200160405190810160405280929190818152602001828054610f7d9061290e565b8015610fca5780601f10610f9f57610100808354040283529160200191610fca565b820191906000526020600020905b815481529060010190602001808311610fad57829003601f168201915b505050505081565b600e54610100900460ff166110345760405162461bcd60e51b815260206004820152602260248201527f5055424c49435f53414c455f4d494e545f49535f4e4f545f5945545f41435449604482015261564560f01b6064820152608401610b0d565b61104681670429d069189e000061295f565b34146110945760405162461bcd60e51b815260206004820152601b60248201527f494e53554646494349454e545f5055424c49435f5041594d454e5400000000006044820152606401610b0d565b600b54336000908152601160205260409020546201000090910460ff16906110bd90839061297e565b111561110b5760405162461bcd60e51b815260206004820152601760248201527f455843454544535f4d41585f5055424c49435f4d494e540000000000000000006044820152606401610b0d565b600d54816111316001546001600160801b03600160801b82048116918116919091031690565b61113b919061297e565b11156111895760405162461bcd60e51b815260206004820152601260248201527f455843454544535f4d41585f535550504c5900000000000000000000000000006044820152606401610b0d565b33600090815260116020526040812080548392906111a890849061297e565b909155506111b890503382611ea8565b50565b60006111c682611ec2565b5192915050565b600e5460ff1661121f5760405162461bcd60e51b815260206004820152601e60248201527f50524553414c455f4d494e545f49535f4e4f545f5945545f41435449564500006044820152606401610b0d565b6112c082828080602002602001604051908101604052809392919081815260200183836020028082843760009201919091525050600f546040516bffffffffffffffffffffffff193360601b1660208201527fff0000000000000000000000000000000000000000000000000000000000000060f88a901b166034820152909250603501905060405160208183030381529060405280519060200120611fe8565b61130c5760405162461bcd60e51b815260206004820152601760248201527f494e56414c49445f57484954454c4953545f50524f4f460000000000000000006044820152606401610b0d565b60ff83166113eb57600b543360009081526010602052604090205460ff9091169061133890869061297e565b11156113865760405162461bcd60e51b815260206004820152601360248201527f455843454544535f4d41585f4f475f4d494e54000000000000000000000000006044820152606401610b0d565b6113988467016345785d8a000061295f565b34146113e65760405162461bcd60e51b815260206004820152601760248201527f494e53554646494349454e545f4f475f5041594d454e540000000000000000006044820152606401610b0d565b6114c1565b600b543360009081526010602052604090205461010090910460ff169061141390869061297e565b11156114615760405162461bcd60e51b815260206004820152601860248201527f455843454544535f4d41585f50524553414c455f4d494e5400000000000000006044820152606401610b0d565b61147384670138a388a43c000061295f565b34146114c15760405162461bcd60e51b815260206004820152601c60248201527f494e53554646494349454e545f50524553414c455f5041594d454e54000000006044820152606401610b0d565b600c54846114e76001546001600160801b03600160801b82048116918116919091031690565b6114f1919061297e565b111561153f5760405162461bcd60e51b815260206004820152601a60248201527f455843454544535f4d41585f50524553414c455f535550504c590000000000006044820152606401610b0d565b336000908152601060205260408120805486929061155e90849061297e565b9091555061156e90503385611ea8565b50505050565b60098054610f519061290e565b60006001600160a01b0382166115aa576040516323d3ad8160e21b815260040160405180910390fd5b506001600160a01b031660009081526005602052604090205467ffffffffffffffff1690565b6000546001600160a01b031633146116185760405162461bcd60e51b81526020600482018190526024820152600080516020612aa58339815191526044820152606401610b0d565b6116226000611ffe565b565b6000546001600160a01b0316331461166c5760405162461bcd60e51b81526020600482018190526024820152600080516020612aa58339815191526044820152606401610b0d565b600b805460ff9092166101000261ff0019909216919091179055565b6000546001600160a01b031633146116d05760405162461bcd60e51b81526020600482018190526024820152600080516020612aa58339815191526044820152606401610b0d565b600e805460ff19811660ff90911615179055565b6060600380546109749061290e565b600e5462010000900460ff1661174b5760405162461bcd60e51b815260206004820181905260248201527f465245455f53414c455f4d494e545f49535f4e4f545f5945545f4143544956456044820152606401610b0d565b34156117995760405162461bcd60e51b815260206004820152601d60248201527f494e53554646494349454e545f4652454553414c455f5041594d454e540000006044820152606401610b0d565b600d54816117bf6001546001600160801b03600160801b82048116918116919091031690565b6117c9919061297e565b11156118175760405162461bcd60e51b815260206004820152601260248201527f455843454544535f4d41585f535550504c5900000000000000000000000000006044820152606401610b0d565b6111b83382611ea8565b6001600160a01b03821633141561184b5760405163b06307db60e01b815260040160405180910390fd5b3360008181526007602090815260408083206001600160a01b03871680855290835292819020805460ff191686151590811790915590519081529192917f17307eab39ab6107e8899845ad3d59bd9653f200f220920489ca2b5937696c31910160405180910390a35050565b6118c2848484611c89565b6118ce8484848461205b565b61156e576040516368d2bf6b60e11b815260040160405180910390fd5b60606118f682611bea565b6119685760405162461bcd60e51b815260206004820152602f60248201527f4552433732314d657461646174613a2055524920717565727920666f72206e6f60448201527f6e6578697374656e7420746f6b656e00000000000000000000000000000000006064820152608401610b0d565b600e546301000000900460ff16611a0b57600a80546119869061290e565b80601f01602080910402602001604051908101604052809291908181526020018280546119b29061290e565b80156119ff5780601f106119d4576101008083540402835291602001916119ff565b820191906000526020600020905b8154815290600101906020018083116119e257829003601f168201915b50505050509050919050565b6000611a1561216a565b90506000815111611a355760405180602001604052806000815250611a60565b80611a3f84612179565b604051602001611a50929190612996565b6040516020818303038152906040525b9392505050565b6000546001600160a01b03163314611aaf5760405162461bcd60e51b81526020600482018190526024820152600080516020612aa58339815191526044820152606401610b0d565b600e805463ff00000019811663010000009182900460ff1615909102179055565b6000546001600160a01b03163314611b185760405162461bcd60e51b81526020600482018190526024820152600080516020612aa58339815191526044820152606401610b0d565b600c55565b6000546001600160a01b03163314611b655760405162461bcd60e51b81526020600482018190526024820152600080516020612aa58339815191526044820152606401610b0d565b6001600160a01b038116611be15760405162461bcd60e51b815260206004820152602660248201527f4f776e61626c653a206e6577206f776e657220697320746865207a65726f206160448201527f64647265737300000000000000000000000000000000000000000000000000006064820152608401610b0d565b6111b881611ffe565b6001546000906001600160801b03168210801561095f575050600090815260046020526040902054600160e01b900460ff161590565b600082815260066020526040808220805473ffffffffffffffffffffffffffffffffffffffff19166001600160a01b0387811691821790925591518593918516917f8c5be1e5ebec7d5bd14f71427d1e84f3dd0314c0f7b2291e5b200ac8c7c3b92591a4505050565b6000611c9482611ec2565b80519091506000906001600160a01b0316336001600160a01b03161480611cc257508151611cc290336108aa565b80611cdd575033611cd2846109f7565b6001600160a01b0316145b905080611cfd57604051632ce44b5f60e11b815260040160405180910390fd5b846001600160a01b031682600001516001600160a01b031614611d325760405162a1148160e81b815260040160405180910390fd5b6001600160a01b038416611d5957604051633a954ecd60e21b815260040160405180910390fd5b611d696000848460000151611c20565b6001600160a01b038581166000908152600560209081526040808320805467ffffffffffffffff1980821667ffffffffffffffff92831660001901831617909255898616808652838620805493841693831660019081018416949094179055898652600490945282852080546001600160e01b031916909417600160a01b429092169190910217909255908601808352912054909116611e5e576001546001600160801b0316811015611e5e578251600082815260046020908152604090912080549186015167ffffffffffffffff16600160a01b026001600160e01b03199092166001600160a01b03909316929092171790555b5082846001600160a01b0316866001600160a01b03167fddf252ad1be2c89b69c2b068fc378daa952ba7f163c4a11628f55a4df523b3ef60405160405180910390a45b5050505050565b610db682826040518060200160405280600081525061228f565b604080516060810182526000808252602082018190529181019190915260015482906001600160801b0316811015611fcf57600081815260046020908152604091829020825160608101845290546001600160a01b0381168252600160a01b810467ffffffffffffffff1692820192909252600160e01b90910460ff16151591810182905290611fcd5780516001600160a01b031615611f63579392505050565b5060001901600081815260046020908152604091829020825160608101845290546001600160a01b038116808352600160a01b820467ffffffffffffffff1693830193909352600160e01b900460ff1615159281019290925215611fc8579392505050565b611f63565b505b604051636f96cda160e11b815260040160405180910390fd5b600082611ff5858461229c565b14949350505050565b600080546001600160a01b0383811673ffffffffffffffffffffffffffffffffffffffff19831681178455604051919092169283917f8be0079c531659141344cd1fd0a4f28419497f9722a3daafe3b4186f6b6457e09190a35050565b60006001600160a01b0384163b1561215e57604051630a85bd0160e11b81526001600160a01b0385169063150b7a029061209f9033908990889088906004016129c5565b602060405180830381600087803b1580156120b957600080fd5b505af19250505080156120e9575060408051601f3d908101601f191682019092526120e691810190612a01565b60015b612144573d808015612117576040519150601f19603f3d011682016040523d82523d6000602084013e61211c565b606091505b50805161213c576040516368d2bf6b60e11b815260040160405180910390fd5b805181602001fd5b6001600160e01b031916630a85bd0160e11b149050612162565b5060015b949350505050565b6060600980546109749061290e565b60608161219d5750506040805180820190915260018152600360fc1b602082015290565b8160005b81156121c757806121b181612a1e565b91506121c09050600a83612a4f565b91506121a1565b60008167ffffffffffffffff8111156121e2576121e2612698565b6040519080825280601f01601f19166020018201604052801561220c576020820181803683370190505b5090505b841561216257612221600183612a63565b915061222e600a86612a7a565b61223990603061297e565b60f81b81838151811061224e5761224e612a8e565b60200101907effffffffffffffffffffffffffffffffffffffffffffffffffffffffffffff1916908160001a905350612288600a86612a4f565b9450612210565b610ac48383836001612310565b600081815b84518110156123085760008582815181106122be576122be612a8e565b602002602001015190508083116122e457600083815260208290526040902092506122f5565b600081815260208490526040902092505b508061230081612a1e565b9150506122a1565b509392505050565b6001546001600160801b03166001600160a01b03851661234257604051622e076360e81b815260040160405180910390fd5b836123605760405163b562e8dd60e01b815260040160405180910390fd5b6001600160a01b038516600081815260056020908152604080832080546fffffffffffffffffffffffffffffffff19811667ffffffffffffffff8083168c0181169182176801000000000000000067ffffffffffffffff1990941690921783900481168c018116909202179091558584526004909252822080546001600160e01b031916909317600160a01b42909216919091021790915581905b8581101561247c5760405182906001600160a01b038916906000907fddf252ad1be2c89b69c2b068fc378daa952ba7f163c4a11628f55a4df523b3ef908290a48380156124525750612450600088848861205b565b155b15612470576040516368d2bf6b60e11b815260040160405180910390fd5b600191820191016123fb565b50600180546fffffffffffffffffffffffffffffffff19166001600160801b0392909216919091179055611ea1565b8280546124b79061290e565b90600052602060002090601f0160209004810192826124d9576000855561251f565b82601f106124f257805160ff191683800117855561251f565b8280016001018555821561251f579182015b8281111561251f578251825591602001919060010190612504565b5061252b92915061252f565b5090565b5b8082111561252b5760008155600101612530565b6001600160e01b0319811681146111b857600080fd5b60006020828403121561256c57600080fd5b8135611a6081612544565b60005b8381101561259257818101518382015260200161257a565b8381111561156e5750506000910152565b600081518084526125bb816020860160208601612577565b601f01601f19169290920160200192915050565b602081526000611a6060208301846125a3565b6000602082840312156125f457600080fd5b5035919050565b80356001600160a01b038116811461261257600080fd5b919050565b6000806040838503121561262a57600080fd5b612633836125fb565b946020939093013593505050565b60006020828403121561265357600080fd5b611a60826125fb565b60008060006060848603121561267157600080fd5b61267a846125fb565b9250612688602085016125fb565b9150604084013590509250925092565b634e487b7160e01b600052604160045260246000fd5b600067ffffffffffffffff808411156126c9576126c9612698565b604051601f8501601f19908116603f011681019082821181831017156126f1576126f1612698565b8160405280935085815286868601111561270a57600080fd5b858560208301376000602087830101525050509392505050565b60006020828403121561273657600080fd5b813567ffffffffffffffff81111561274d57600080fd5b8201601f8101841361275e57600080fd5b612162848235602084016126ae565b803560ff8116811461261257600080fd5b6000806000806060858703121561279457600080fd5b843593506127a46020860161276d565b9250604085013567ffffffffffffffff808211156127c157600080fd5b818701915087601f8301126127d557600080fd5b8135818111156127e457600080fd5b8860208260051b85010111156127f957600080fd5b95989497505060200194505050565b60006020828403121561281a57600080fd5b611a608261276d565b6000806040838503121561283657600080fd5b61283f836125fb565b91506020830135801515811461285457600080fd5b809150509250929050565b6000806000806080858703121561287557600080fd5b61287e856125fb565b935061288c602086016125fb565b925060408501359150606085013567ffffffffffffffff8111156128af57600080fd5b8501601f810187136128c057600080fd5b6128cf878235602084016126ae565b91505092959194509250565b600080604083850312156128ee57600080fd5b6128f7836125fb565b9150612905602084016125fb565b90509250929050565b600181811c9082168061292257607f821691505b6020821081141561294357634e487b7160e01b600052602260045260246000fd5b50919050565b634e487b7160e01b600052601160045260246000fd5b600081600019048311821515161561297957612979612949565b500290565b6000821982111561299157612991612949565b500190565b600083516129a8818460208801612577565b8351908301906129bc818360208801612577565b01949350505050565b60006001600160a01b038087168352808616602084015250836040830152608060608301526129f760808301846125a3565b9695505050505050565b600060208284031215612a1357600080fd5b8151611a6081612544565b6000600019821415612a3257612a32612949565b5060010190565b634e487b7160e01b600052601260045260246000fd5b600082612a5e57612a5e612a39565b500490565b600082821015612a7557612a75612949565b500390565b600082612a8957612a89612a39565b500690565b634e487b7160e01b600052603260045260246000fdfe4f776e61626c653a2063616c6c6572206973206e6f7420746865206f776e6572a26469706673582212208e5bcda7c605877b92a3fa04894869664de5d8de1799d07e07bfaa8afc5b0ab964736f6c6343000809003368747470733a2f2f7261772e67697468756275736572636f6e74656e742e636f6d2f4c756e61724e46542f4c756e61724e4654436f6e74726163742f6d61737465722f6d657461646174612f6a736f6e2f6e6f6e72657665616c2e6a736f6e68747470733a2f2f7261772e67697468756275736572636f6e74656e742e636f6d2f4c756e61724e46542f4c756e61724e4654436f6e74726163742f6d61737465722f6d657461646174612f6a736f6e2f",
  "linkReferences": {},
  "deployedLinkReferences": {}
}